:1070000055C000006EC000006CC000006AC00000E7
:1070100068C0000066C0000064C0000062C00000DC
:1070200060C000005EC00000F2C400005AC0000052
:1070300058C0000056C0000054C0000052C00000FC
:1070400050C0000078C000004CC000004AC00000E2
:1070500048C0000046C0000044C0000042C000001C
:1070600040C000003EC000003CC000003AC000002C
:1070700038C0000036C0000034C0000032C000003C
:1070800030C000002EC000002CC000002AC000004C
:1070900028C0000026C0000024C0000022C000005C
:1070A00020C000001EC000001CC0000011241FBE34
:1070B000CFEFDAE0DEBFCDBF11E0A0E0B1E0EEE25D
:1070C000FFE702C005900D92A03BB107D9F711E090
:1070D000A0EBB1E001C01D92A63CB107E1F78FD350
:1070E00024C78ECFF89410926F00109281001092F6
:1070F00085001092840081E085BF15BE47985D9A97
:10710000289A0C94000008952091BA013091BB0197
:107110002F5F3F4F3093BB012093BA01932F37FF6E
:1071200003C08EEF831B982F990F921710F4479886
:107130000895479A08951F920F920FB60F92112447
:107140002F938F939F93EF93FF931092850010924C
:1071500084008091B0019091B101009741F00197B6
:107160009093B1018093B001892B09F45D9A8091CD
:10717000B2019091B301009741F001979093B30150
:107180008093B201892B09F4289AE0E0F0E0859120
:1071900094918F5F9F4F49F08091B4019091B50118
:1071A00001969093B5018093B401FF91EF919F9167
:1071B0008F912F910F900FBE0F901F90189584E024
:1071C0008093E9000DC08091E8008B778093E80000
:1071D00003C08EB3882351F08091E80082FFF9CF7D
:1071E0008091E80085FFEFCF8091F1000895982FFE
:1071F00083E08093E9008091E80085FD0DC08091D7
:10720000E8008E778093E80003C08EB3882369F08E
:107210008091E80080FFF9CF9093F1005D9884E6BB
:1072200090E09093B1018093B00108954F925F92E6
:107230006F927F928F929F92AF92BF92CF92DF9286
:10724000EF92FF920F931F93CF93DF9384E080938D
:10725000E9008091E80082FF57C2289884E690E018
:107260009093B3018093B201AADF182F853481F483
:107270008CE49DE19093B5018093B40107B600FCC6
:10728000FDCFF999FECF81E180935700E89503C0C7
:10729000843519F494DF8DE00DC28C34E1F3803530
:1072A000D1F3843721F484E4A2DF80E003C2813685
:1072B00011F489E5FFC18134B1F481DF182F7FDF3C
:1072C00090E0880F991FAA2797FDA095BA2F312F1C
:1072D000330F20E0442737FD4095542F822B932B0A
:1072E000A42BB52BB8C1803711F483E5E3C18335F6
:1072F00049F4C0E0D1E089917ADF21E0C730D207BC
:10730000D1F7D9C1863521F481E371DF80E3D2C1A1
:10731000833731F487E86BDF85E969DF8EE1CAC125
:107320008536B9F4E0E0F0E093E085E09093570013
:10733000E89507B600FCFDCF80935700E89507B6A7
:1073400000FCFDCFE058FF4FA0E7E030FA0771F7EF
:10735000A2CF823739F4E1E0F0E089E08093570072
:107360008491A8C1863439F4E0E0F0E089E08093AC
:10737000570084919FC18E3439F4E3E0F0E089E056
:1073800080935700849196C1813539F4E2E0F0E0B2
:1073900089E08093570084918DC1823631F489E56C
:1073A00026DF80E024DF80E885C1823419F087364B
:1073B00009F0E5C01092B5011092B40100DF082F6A
:1073C000FEDEF82EFCDE682E8554823008F071C196
:1073D000902F80E0CF2DD0E0C82BD92B10926F00DA
:1073E000173609F04BC081E180935700E895DD2402
:1073F000CC24C3943FC0E090B601F090B701009157
:10740000B8011091B901B6E46B16D9F4ED2DF0E096
:10741000EE29FF29E4918E2FEADEDD2081F082E063
:1074200090E0A0E0B0E0E80EF91E0A1F1B1FE092FA
:10743000B601F092B7010093B8011093B901DC24B2
:1074400018C0D801C701B695A7959795879557D5C8
:10745000CEDE82E090E0A0E0B0E0E80EF91E0A1F68
:107460001B1FE092B601F092B7010093B801109390
:10747000B9012197209709F0BECF7DC08090B60159
:107480009090B701A090B801B090B90196E4691648
:1074900009F05DC083E0F40180935700E89507B6DA
:1074A00000FCFDCF54C0F6E46F1661F5772031F192
:1074B000E090B601F090B7010091B8011091B901C8
:1074C0007EDED82ECC24852D90E08C299D29F701D5
:1074D0000C0140925700E895112482E090E0A0E072
:1074E000B0E0E80EF91E0A1F1B1FE092B601F092F1
:1074F000B7010093B8011093B90102C060DE582EA5
:10750000742423C0E090B601F090B7010091B80157
:107510001091B90116950795F794E79450DE682FFE
:10752000C701F5D48091B6019091B701A091B8013F
:10753000B091B9010296A11DB11D8093B60190933F
:10754000B701A093B801B093B901219704C05524A5
:10755000772444244394209709F0A5CF96E4691634
:1075600041F485E0F40180935700E89507B600FCEC
:10757000FDCF8DE03CDE82E080936F009CC08334C1
:1075800071F40091B6011091B70119DE90E021E08D
:10759000F8010C0120935700E89511247CCE833626
:1075A00019F5E090B601F090B7010091B801109183
:1075B000B90105DEF701E16090E021E00C012093C4
:1075C0005700E895112482E090E0A0E0B0E0E80EDA
:1075D000F91E0A1F1B1FE092B601F092B70100933B
:1075E000B8011093B90157CE8D3661F4E091B60120
:1075F000F091B70185E080935700E89507B600FC4D
:10760000FDCF49CE823551F4E091B601F091B7013A
:1076100005911491812FEBDD802F4CC0843421F52E
:10762000E090B601F090B7010091B8011091B90156
:1076300016950795F794E794C2DD682FC70167D4C4
:107640008091B6019091B701A091B801B091B901B4
:107650000296A11DB11D8093B6019093B701A0932E
:10766000B801B093B90117CE843609F5E090B601A0
:10767000F090B7010091B8011091B901D801C7018C
:10768000B695A795979587953AD4B1DD82E090E0BD
:10769000A0E0B0E0E80EF91E0A1F1B1FE092B60141
:1076A000F092B7010093B8011093B90104C08B3177
:1076B00011F08FE39CDD83E08093E9009091E80076
:1076C0008091E8008E778093E80095FF04C010C099
:1076D0008EB38823C9F08091E80080FFF9CF8091B4
:1076E000E8008E778093E80003C08EB3882361F0B2
:1076F0008091E80080FFF9CF84E08093E9008091D9
:10770000E8008B778093E800DF91CF911F910F9174
:10771000FF90EF90DF90CF90BF90AF909F908F90B1
:107720007F906F905F904F9008959091BE01892F48
:107730008F77813249F58091BF018032A1F081328B
:1077400019F5913A09F58091E800877F8093E80068
:107750008DE091E067E070E009D28091E8008B77DE
:107760008093E8000895913279F48091E800877F52
:107770008093E8008DE091E067E070E05BD280915B
:10778000E8008E778093E800089582E061EC42E0A3
:10779000B5D083E061E842E1B1D084E060E842E145
:1077A000ADC084B7877F84BF88E10FB6F89480931B
:1077B0006000109260000FBE20E880E090E00FB6FD
:1077C000F89420936100809361000FBE81E085BF33
:1077D00092E095BF3F9A209A559AE1E6F0E0208327
:1077E000108247985D9A289A109289008AEF8093B8
:1077F000880090936F0083E080938100F0C04091F7
:10780000000850910108109201081092000894B7E6
:1078100014BE88E10FB6F894809360001092600067
:107820000FBE292F30E0F901E270F07091FD18C011
:1078300090FF05C0859194918F5F9F4F81F423FF46
:107840000FC08091090190910A014817590741F032
:10785000E0E0F0E0859194918F5F9F4F09F042DC6A
:10786000A0DF78941092B5011092B4010CC0DEDC58
:1078700034D38091B4019091B50181549F4110F0AF
:107880001092140141DC80911401882381F78091CA
:10789000E00081608093E00025DC80E090E00895C6
:1078A000FA01923049F0933061F09130F9F485E1BA
:1078B00091E022E130E01EC087E291E02EE330E06B
:1078C00019C0882329F485E691E024E030E012C055
:1078D000813029F489E691E022E230E00BC0823069
:1078E00029F48DE891E020E230E004C080E090E0EF
:1078F00020E030E091838083C90108958093E900FE
:107900008091EB0081608093EB001092ED0060931A
:10791000EC004093ED008091EE00881F8827881FBF
:1079200008958091BE0188238CF403C08EB3882310
:10793000B1F08091E80082FFF9CF8091E8008B7769
:107940008093E80008958EB3882349F08091E80081
:1079500080FFF9CF8091E8008E778093E80008954A
:10796000EF92FF920F931F9345D04CD008ED10E09B
:10797000F80180818F778083808180688083808117
:107980008F7D808319BC1EBA1092BC0180EEE82E58
:10799000F12CF70180818B7F8083F80180818160E9
:1079A000808380E060E042E0A9DFE1EEF0E08081EA
:1079B0008E7F8083E2EEF0E0808181608083808131
:1079C00088608083F70180818E7F8083F8018081C9
:1079D000806180831F910F91FF90EF900895E7EDF4
:1079E000F0E08081816080838AE482BF81E08093BF
:1079F000BD01B6CFE8EDF0E080818E7F80831092EC
:107A0000E20008951092DA001092E10008951F92AA
:107A10000F920FB60F9211242F933F934F935F93C2
:107A20006F937F938F939F93AF93BF93EF93FF9346
:107A30008091DA0080FF1AC08091D80080FF16C0C4
:107A40008091DA008E7F8093DA008091D90080FFE8
:107A50000AC019BC82E089BD09B400FEFDCF81E0F7
:107A60008EBB3AD203C019BC1EBA36D28091E10057
:107A700080FF17C08091E20080FF13C08091E20078
:107A80008E7F8093E2008091E20080618093E2002B
:107A90008091D80080628093D80019BC85E08EBBAD
:107AA0001BD28091E10084FF2BC08091E20084FF13
:107AB00027C019BC82E089BD09B400FEFDCF8091CA
:107AC000D8008F7D8093D8008091E1008F7E8093D5
:107AD000E1008091E2008F7E8093E2008091E200DD
:107AE00081608093E2008091BC01882331F4809111
:107AF000E30087FD02C081E001C084E08EBBECD1D1
:107B00008091E10083FF21C08091E20083FF1DC0CE
:107B10008091E100877F8093E10082E08EBB10922C
:107B2000BC018091E1008E7F8093E1008091E200B2
:107B30008E7F8093E2008091E20080618093E2007A
:107B400080E060E042E0DADEC7D1FF91EF91BF91C3
:107B5000AF919F918F917F916F915F914F913F91E5
:107B60002F910F900FBE0F901F9018959C01409180
:107B7000C4015091C5014617570718F4F90190E068
:107B800044C06115710511F0AB01F8CF8091E80098
:107B90008E778093E80040E050E0F0CF8EB38823EA
:107BA00009F444C0853009F443C08091E80083FFA4
:107BB00002C081E008958091E80082FD31C080918B
:107BC000E80080FF22C08091F3009091F200782FAE
:107BD00060E0292F30E0262B372B07C0819180935E
:107BE000F100415050402F5F3F4F4115510519F0B2
:107BF0002830310598F390E02830310509F491E000
:107C00008091E8008E778093E8004115510531F6A8
:107C1000992321F605C08EB3882341F0853041F0C9
:107C20008091E80082FFF7CF80E0089582E0089518
:107C300083E008959C016115710529F48091E800A5
:107C40008B778093E800F90126C08EB3882391F1E9
:107C5000853091F18091E80083FF02C081E00895B2
:107C60008091E80082FFF1CF06C08091F1008193FE
:107C70006150704059F02091F3008091F200322F52
:107C800020E090E0822B932B892B79F78091E800FC
:107C90008B778093E80061157105B9F605C08EB346
:107CA000882341F0853041F08091E80080FFF7CFD4
:107CB00080E0089582E0089583E008950F931F9374
:107CC000DF93CF9300D0CDB7DEB7EEEBF1E080913C
:107CD000F100819381E0E63CF807C9F726DD809149
:107CE000E80083FFE4C08091BE019091BF01953010
:107CF00009F46DC0963040F4913081F1913070F00C
:107D0000933009F0D4C02AC0983009F4A3C0993048
:107D100009F4B2C0963009F0CAC07CC0803809F4BA
:107D2000C6C0823809F0C3C08091C20187708093B9
:107D3000E9008091EB001092E9002091E800277F94
:107D40002093E80090E025E0969587952A95E1F745
:107D500081708093F1001092F10087C0882319F0A0
:107D6000823009F0A4C08F71823009F0A0C08091E8
:107D7000C001882331F52091C201277009F497C012
:107D80002093E9008091EB0080FF1BC0933021F429
:107D90008091EB00806213C08091EB008061809342
:107DA000EB0081E090E002C0880F991F2A95E2F76E
:107DB0008093EA001092EA008091EB008860809343
:107DC000EB001092E9008091E800877F51C0882382
:107DD00009F06DC01091C0011F770FB7F894809122
:107DE000E800877F8093E8009CDD8091E80080FFB9
:107DF000FCCF8091E3008078812B8093E300806842
:107E00008093E300112311F482E001C083E08EBB74
:107E10000FBF4DC08058823008F049C08091C0012A
:107E20009091C1016091C201AE014F5F5F4F38DD9B
:107E3000BC01009709F43BC08091E800877F8093E4
:107E4000E80089819A8192DE8091E8008B778093A7
:107E5000E8002DC0803859F58091E800877F809335
:107E6000E8008091BC018093F1008091E8008E775A
:107E70008093E80056DD1BC08823C9F49091C001AF
:107E80009230A8F48091E800877F8093E800909377
:107E9000BC0147DD8091BC01882331F48091E3006F
:107EA00087FD02C081E001C084E08EBB6EDC809162
:107EB000E80083FF0AC08091EB0080628093EB00B2
:107EC0008091E800877F8093E8000F900F90CF911A
:107ED000DF911F910F91089508951F938EB388230A
:107EE00061F01091E9001092E9008091E80083FFB1
:107EF00001C0E4DE17701093E9001F910895F9990D
:107F0000FECF92BD81BDF89A992780B50895262F9E
:107F1000F999FECF1FBA92BD81BD20BD0FB6F8946E
:0E7F2000FA9AF99A0FBE01960895F894FFCFD1
:107F2E004341544552494E41007777000800000006
:107F3E00000000080112011001020000088277798A
:107F4E007301000201000109023E000201008032AD
:107F5E00090400000102020100052400100104249E
:107F6E0002040524060001070582030800FF090428
:107F7E000100020A000000070504021000010705B7
:107F8E00830210000104030904220355005300422A
:107F9E0000200049004F00200062006F0061007257
:107FAE000064002000200020002000000020035567
:107FBE00006E006B006E006F0077006E00200020D8
:107FCE0000200020002000200020002000000000E3
:040000030000700089
:00000001FF
